{
  "_format": "hh-sol-artifact-1",
  "contractName": "PeerDuel",
  "sourceName": "contracts/PeerDuel.sol",
  "abi": [
    {
      "inputs": [
        {
          "internalType": "address",
          "name": "_link",
          "type": "address"
        },
        {
          "internalType": "address",
          "name": "_oracle",
          "type": "address"
        },
        {
          "internalType": "uint256",
          "name": "_feePercent",
          "type": "uint256"
        }
      ],
      "stateMutability": "nonpayable",
      "type": "constructor"
    },
    {
      "inputs": [
        {
          "internalType": "address",
          "name": "to",
          "type": "address"
        },
        {
          "internalType": "uint256",
          "name": "amount",
          "type": "uint256"
        }
      ],
      "name": "FailedTransferLINK",
      "type": "error"
    },
    {
      "anonymous": false,
      "inputs": [
        {
          "indexed": false,
          "internalType": "uint256",
          "name": "betId",
          "type": "uint256"
        },
        {
          "indexed": false,
          "internalType": "address",
          "name": "acceptor",
          "type": "address"
        },
        {
          "indexed": false,
          "internalType": "string",
          "name": "acceptorTeam",
          "type": "string"
        },
        {
          "indexed": false,
          "internalType": "uint256",
          "name": "acceptorAmount",
          "type": "uint256"
        },
        {
          "indexed": false,
          "internalType": "uint256",
          "name": "acceptedTimestamp",
          "type": "uint256"
        }
      ],
      "name": "Accept",
      "type": "event"
    },
    {
      "anonymous": false,
      "inputs": [
        {
          "indexed": false,
          "internalType": "uint256",
          "name": "betId",
          "type": "uint256"
        },
        {
          "indexed": false,
          "internalType": "address",
          "name": "creator",
          "type": "address"
        },
        {
          "indexed": false,
          "internalType": "uint256",
          "name": "transferredAmount",
          "type": "uint256"
        },
        {
          "indexed": false,
          "internalType": "uint256",
          "name": "timestamp",
          "type": "uint256"
        }
      ],
      "name": "Cancel",
      "type": "event"
    },
    {
      "anonymous": false,
      "inputs": [
        {
          "indexed": true,
          "internalType": "bytes32",
          "name": "id",
          "type": "bytes32"
        }
      ],
      "name": "ChainlinkCancelled",
      "type": "event"
    },
    {
      "anonymous": false,
      "inputs": [
        {
          "indexed": true,
          "internalType": "bytes32",
          "name": "id",
          "type": "bytes32"
        }
      ],
      "name": "ChainlinkFulfilled",
      "type": "event"
    },
    {
      "anonymous": false,
      "inputs": [
        {
          "indexed": true,
          "internalType": "bytes32",
          "name": "id",
          "type": "bytes32"
        }
      ],
      "name": "ChainlinkRequested",
      "type": "event"
    },
    {
      "anonymous": false,
      "inputs": [
        {
          "indexed": false,
          "internalType": "uint256",
          "name": "betId",
          "type": "uint256"
        },
        {
          "indexed": false,
          "internalType": "bytes32",
          "name": "gameId",
          "type": "bytes32"
        },
        {
          "indexed": false,
          "internalType": "address",
          "name": "creator",
          "type": "address"
        },
        {
          "indexed": false,
          "internalType": "string",
          "name": "creatorTeam",
          "type": "string"
        },
        {
          "indexed": false,
          "internalType": "uint256",
          "name": "creatorAmount",
          "type": "uint256"
        },
        {
          "indexed": false,
          "internalType": "uint256",
          "name": "createdTimestamp",
          "type": "uint256"
        }
      ],
      "name": "Create",
      "type": "event"
    },
    {
      "anonymous": false,
      "inputs": [
        {
          "indexed": false,
          "internalType": "bytes32",
          "name": "gameId",
          "type": "bytes32"
        },
        {
          "indexed": false,
          "internalType": "uint256",
          "name": "sportId",
          "type": "uint256"
        },
        {
          "indexed": false,
          "internalType": "uint256",
          "name": "startTime",
          "type": "uint256"
        },
        {
          "indexed": false,
          "internalType": "string",
          "name": "homeTeam",
          "type": "string"
        },
        {
          "indexed": false,
          "internalType": "string",
          "name": "awayTeam",
          "type": "string"
        },
        {
          "indexed": false,
          "internalType": "uint256",
          "name": "timestamp",
          "type": "uint256"
        }
      ],
      "name": "RequestCreate",
      "type": "event"
    },
    {
      "anonymous": false,
      "inputs": [
        {
          "indexed": false,
          "internalType": "bytes32",
          "name": "gameId",
          "type": "bytes32"
        },
        {
          "indexed": false,
          "internalType": "uint256",
          "name": "sportId",
          "type": "uint256"
        },
        {
          "indexed": false,
          "internalType": "uint8",
          "name": "homeScore",
          "type": "uint8"
        },
        {
          "indexed": false,
          "internalType": "uint8",
          "name": "awayScore",
          "type": "uint8"
        },
        {
          "indexed": false,
          "internalType": "uint8",
          "name": "statusId",
          "type": "uint8"
        },
        {
          "indexed": false,
          "internalType": "uint256",
          "name": "timestamp",
          "type": "uint256"
        }
      ],
      "name": "RequestResolve",
      "type": "event"
    },
    {
      "anonymous": false,
      "inputs": [
        {
          "indexed": false,
          "internalType": "uint256",
          "name": "betId",
          "type": "uint256"
        },
        {
          "indexed": false,
          "internalType": "address",
          "name": "winner",
          "type": "address"
        },
        {
          "indexed": false,
          "internalType": "string",
          "name": "winningTeam",
          "type": "string"
        },
        {
          "indexed": false,
          "internalType": "uint256",
          "name": "winAmount",
          "type": "uint256"
        },
        {
          "indexed": false,
          "internalType": "uint256",
          "name": "feesPaid",
          "type": "uint256"
        },
        {
          "indexed": false,
          "internalType": "uint256",
          "name": "settledTimestamp",
          "type": "uint256"
        }
      ],
      "name": "Settle",
      "type": "event"
    },
    {
      "inputs": [
        {
          "internalType": "uint256",
          "name": "_betId",
          "type": "uint256"
        },
        {
          "internalType": "string",
          "name": "_team",
          "type": "string"
        }
      ],
      "name": "acceptBet",
      "outputs": [],
      "stateMutability": "payable",
      "type": "function"
    },
    {
      "inputs": [],
      "name": "balance",
      "outputs": [
        {
          "internalType": "uint256",
          "name": "",
          "type": "uint256"
        }
      ],
      "stateMutability": "view",
      "type": "function"
    },
    {
      "inputs": [],
      "name": "betId",
      "outputs": [
        {
          "internalType": "uint256",
          "name": "",
          "type": "uint256"
        }
      ],
      "stateMutability": "view",
      "type": "function"
    },
    {
      "inputs": [
        {
          "internalType": "uint256",
          "name": "",
          "type": "uint256"
        }
      ],
      "name": "bets",
      "outputs": [
        {
          "internalType": "uint256",
          "name": "betId",
          "type": "uint256"
        },
        {
          "internalType": "bytes32",
          "name": "gameId",
          "type": "bytes32"
        },
        {
          "internalType": "uint256",
          "name": "amount",
          "type": "uint256"
        },
        {
          "internalType": "string",
          "name": "creatorTeam",
          "type": "string"
        },
        {
          "internalType": "string",
          "name": "acceptorTeam",
          "type": "string"
        },
        {
          "internalType": "string",
          "name": "winningTeam",
          "type": "string"
        },
        {
          "internalType": "address payable",
          "name": "creator",
          "type": "address"
        },
        {
          "internalType": "address payable",
          "name": "acceptor",
          "type": "address"
        },
        {
          "internalType": "address payable",
          "name": "winner",
          "type": "address"
        },
        {
          "internalType": "uint256",
          "name": "timestampCreated",
          "type": "uint256"
        },
        {
          "internalType": "uint256",
          "name": "timestampAccepted",
          "type": "uint256"
        },
        {
          "internalType": "uint256",
          "name": "timestampSettled",
          "type": "uint256"
        }
      ],
      "stateMutability": "view",
      "type": "function"
    },
    {
      "inputs": [
        {
          "internalType": "bytes32",
          "name": "",
          "type": "bytes32"
        },
        {
          "internalType": "uint256",
          "name": "",
          "type": "uint256"
        }
      ],
      "name": "betsForGameId",
      "outputs": [
        {
          "internalType": "uint256",
          "name": "",
          "type": "uint256"
        }
      ],
      "stateMutability": "view",
      "type": "function"
    },
    {
      "inputs": [
        {
          "internalType": "uint256",
          "name": "_betId",
          "type": "uint256"
        }
      ],
      "name": "cancelBet",
      "outputs": [],
      "stateMutability": "nonpayable",
      "type": "function"
    },
    {
      "inputs": [
        {
          "internalType": "bytes32",
          "name": "_requestId",
          "type": "bytes32"
        },
        {
          "internalType": "bytes4",
          "name": "_callbackFunctionId",
          "type": "bytes4"
        },
        {
          "internalType": "uint256",
          "name": "_expiration",
          "type": "uint256"
        }
      ],
      "name": "cancelRequest",
      "outputs": [],
      "stateMutability": "nonpayable",
      "type": "function"
    },
    {
      "inputs": [
        {
          "internalType": "bytes32",
          "name": "_gameId",
          "type": "bytes32"
        },
        {
          "internalType": "string",
          "name": "_betTeam",
          "type": "string"
        },
        {
          "internalType": "uint256",
          "name": "_betAmount",
          "type": "uint256"
        }
      ],
      "name": "createBet",
      "outputs": [],
      "stateMutability": "payable",
      "type": "function"
    },
    {
      "inputs": [],
      "name": "feeAccount",
      "outputs": [
        {
          "internalType": "address payable",
          "name": "",
          "type": "address"
        }
      ],
      "stateMutability": "view",
      "type": "function"
    },
    {
      "inputs": [],
      "name": "feePercent",
      "outputs": [
        {
          "internalType": "uint256",
          "name": "",
          "type": "uint256"
        }
      ],
      "stateMutability": "view",
      "type": "function"
    },
    {
      "inputs": [
        {
          "internalType": "bytes32",
          "name": "_requestId",
          "type": "bytes32"
        },
        {
          "internalType": "bytes[]",
          "name": "_games",
          "type": "bytes[]"
        }
      ],
      "name": "fulfillGamesCreate",
      "outputs": [],
      "stateMutability": "nonpayable",
      "type": "function"
    },
    {
      "inputs": [
        {
          "internalType": "bytes32",
          "name": "_requestId",
          "type": "bytes32"
        },
        {
          "internalType": "bytes[]",
          "name": "_games",
          "type": "bytes[]"
        }
      ],
      "name": "fulfillGamesResolve",
      "outputs": [],
      "stateMutability": "nonpayable",
      "type": "function"
    },
    {
      "inputs": [
        {
          "internalType": "bytes32",
          "name": "",
          "type": "bytes32"
        }
      ],
      "name": "gameBetsSettled",
      "outputs": [
        {
          "internalType": "bool",
          "name": "",
          "type": "bool"
        }
      ],
      "stateMutability": "view",
      "type": "function"
    },
    {
      "inputs": [
        {
          "internalType": "bytes32",
          "name": "",
          "type": "bytes32"
        }
      ],
      "name": "games",
      "outputs": [
        {
          "internalType": "bytes32",
          "name": "gameId",
          "type": "bytes32"
        },
        {
          "internalType": "uint256",
          "name": "sportId",
          "type": "uint256"
        },
        {
          "internalType": "uint256",
          "name": "startTime",
          "type": "uint256"
        },
        {
          "internalType": "uint8",
          "name": "homeScore",
          "type": "uint8"
        },
        {
          "internalType": "uint8",
          "name": "awayScore",
          "type": "uint8"
        },
        {
          "internalType": "uint8",
          "name": "statusId",
          "type": "uint8"
        },
        {
          "internalType": "string",
          "name": "homeTeam",
          "type": "string"
        },
        {
          "internalType": "string",
          "name": "awayTeam",
          "type": "string"
        }
      ],
      "stateMutability": "view",
      "type": "function"
    },
    {
      "inputs": [],
      "name": "gamesCount",
      "outputs": [
        {
          "internalType": "uint256",
          "name": "",
          "type": "uint256"
        }
      ],
      "stateMutability": "view",
      "type": "function"
    },
    {
      "inputs": [
        {
          "internalType": "bytes32",
          "name": "_requestId",
          "type": "bytes32"
        },
        {
          "internalType": "uint256",
          "name": "_idx",
          "type": "uint256"
        }
      ],
      "name": "getGamesCreated",
      "outputs": [
        {
          "components": [
            {
              "internalType": "bytes32",
              "name": "gameId",
              "type": "bytes32"
            },
            {
              "internalType": "uint256",
              "name": "startTime",
              "type": "uint256"
            },
            {
              "internalType": "string",
              "name": "homeTeam",
              "type": "string"
            },
            {
              "internalType": "string",
              "name": "awayTeam",
              "type": "string"
            }
          ],
          "internalType": "struct PeerDuel.GameCreate",
          "name": "",
          "type": "tuple"
        }
      ],
      "stateMutability": "view",
      "type": "function"
    },
    {
      "inputs": [
        {
          "internalType": "bytes32",
          "name": "_requestId",
          "type": "bytes32"
        },
        {
          "internalType": "uint256",
          "name": "_idx",
          "type": "uint256"
        }
      ],
      "name": "getGamesResolved",
      "outputs": [
        {
          "components": [
            {
              "internalType": "bytes32",
              "name": "gameId",
              "type": "bytes32"
            },
            {
              "internalType": "uint8",
              "name": "homeScore",
              "type": "uint8"
            },
            {
              "internalType": "uint8",
              "name": "awayScore",
              "type": "uint8"
            },
            {
              "internalType": "uint8",
              "name": "statusId",
              "type": "uint8"
            }
          ],
          "internalType": "struct PeerDuel.GameResolve",
          "name": "",
          "type": "tuple"
        }
      ],
      "stateMutability": "view",
      "type": "function"
    },
    {
      "inputs": [],
      "name": "getOracleAddress",
      "outputs": [
        {
          "internalType": "address",
          "name": "",
          "type": "address"
        }
      ],
      "stateMutability": "view",
      "type": "function"
    },
    {
      "inputs": [
        {
          "internalType": "uint256",
          "name": "",
          "type": "uint256"
        }
      ],
      "name": "isAccepted",
      "outputs": [
        {
          "internalType": "bool",
          "name": "",
          "type": "bool"
        }
      ],
      "stateMutability": "view",
      "type": "function"
    },
    {
      "inputs": [
        {
          "internalType": "uint256",
          "name": "",
          "type": "uint256"
        }
      ],
      "name": "isCancelled",
      "outputs": [
        {
          "internalType": "bool",
          "name": "",
          "type": "bool"
        }
      ],
      "stateMutability": "view",
      "type": "function"
    },
    {
      "inputs": [
        {
          "internalType": "uint256",
          "name": "",
          "type": "uint256"
        }
      ],
      "name": "isSettled",
      "outputs": [
        {
          "internalType": "bool",
          "name": "",
          "type": "bool"
        }
      ],
      "stateMutability": "view",
      "type": "function"
    },
    {
      "inputs": [
        {
          "internalType": "bytes32",
          "name": "",
          "type": "bytes32"
        }
      ],
      "name": "numberOfBetsForGameId",
      "outputs": [
        {
          "internalType": "uint256",
          "name": "",
          "type": "uint256"
        }
      ],
      "stateMutability": "view",
      "type": "function"
    },
    {
      "inputs": [],
      "name": "requestCount",
      "outputs": [
        {
          "internalType": "uint256",
          "name": "",
          "type": "uint256"
        }
      ],
      "stateMutability": "view",
      "type": "function"
    },
    {
      "inputs": [
        {
          "internalType": "uint256",
          "name": "_sportId",
          "type": "uint256"
        },
        {
          "internalType": "uint256",
          "name": "_date",
          "type": "uint256"
        }
      ],
      "name": "requestGamesCreate",
      "outputs": [],
      "stateMutability": "nonpayable",
      "type": "function"
    },
    {
      "inputs": [
        {
          "internalType": "uint256",
          "name": "_sportId",
          "type": "uint256"
        },
        {
          "internalType": "uint256",
          "name": "_date",
          "type": "uint256"
        }
      ],
      "name": "requestGamesResolve",
      "outputs": [],
      "stateMutability": "nonpayable",
      "type": "function"
    },
    {
      "inputs": [
        {
          "internalType": "bytes32",
          "name": "",
          "type": "bytes32"
        },
        {
          "internalType": "uint256",
          "name": "",
          "type": "uint256"
        }
      ],
      "name": "requestIdGames",
      "outputs": [
        {
          "internalType": "bytes",
          "name": "",
          "type": "bytes"
        }
      ],
      "stateMutability": "view",
      "type": "function"
    },
    {
      "inputs": [
        {
          "internalType": "address",
          "name": "_oracle",
          "type": "address"
        }
      ],
      "name": "setOracle",
      "outputs": [],
      "stateMutability": "nonpayable",
      "type": "function"
    },
    {
      "inputs": [
        {
          "internalType": "bytes32",
          "name": "_gameId",
          "type": "bytes32"
        }
      ],
      "name": "settleBets",
      "outputs": [],
      "stateMutability": "nonpayable",
      "type": "function"
    },
    {
      "inputs": [],
      "name": "timestampAtLastRequestGameCreate",
      "outputs": [
        {
          "internalType": "uint256",
          "name": "",
          "type": "uint256"
        }
      ],
      "stateMutability": "view",
      "type": "function"
    },
    {
      "inputs": [],
      "name": "timestampAtLastRequestGameResolve",
      "outputs": [
        {
          "internalType": "uint256",
          "name": "",
          "type": "uint256"
        }
      ],
      "stateMutability": "view",
      "type": "function"
    },
    {
      "inputs": [
        {
          "internalType": "address payable",
          "name": "_payee",
          "type": "address"
        },
        {
          "internalType": "uint256",
          "name": "_amount",
          "type": "uint256"
        }
      ],
      "name": "withdrawLink",
      "outputs": [],
      "stateMutability": "nonpayable",
      "type": "function"
    },
    {
      "stateMutability": "payable",
      "type": "receive"
    }
  ],
  "bytecode": "0x608060405260016004553480156200001657600080fd5b50604051620055d2380380620055d283398181016040528101906200003c9190620001ed565b6200004d83620000c060201b60201c565b6200005e826200010460201b60201c565b7f3662303964333762323834663436353562623531306634393465646331313166600e81905550600a670de0b6b3a764000060016200009e919062000278565b620000aa9190620002f2565b600981905550806007819055505050506200032a565b80600260006101000a81548173ffffffffffffffffffffffffffffffffffffffff021916908373ffffffffffffffffffffffffffffffffffffffff16021790555050565b80600360006101000a81548173ffffffffffffffffffffffffffffffffffffffff021916908373ffffffffffffffffffffffffffffffffffffffff16021790555050565b600080fd5b600073ffffffffffffffffffffffffffffffffffffffff82169050919050565b60006200017a826200014d565b9050919050565b6200018c816200016d565b81146200019857600080fd5b50565b600081519050620001ac8162000181565b92915050565b6000819050919050565b620001c781620001b2565b8114620001d357600080fd5b50565b600081519050620001e781620001bc565b92915050565b60008060006060848603121562000209576200020862000148565b5b600062000219868287016200019b565b93505060206200022c868287016200019b565b92505060406200023f86828701620001d6565b9150509250925092565b7f4e487b7100000000000000000000000000000000000000000000000000000000600052601160045260246000fd5b60006200028582620001b2565b91506200029283620001b2565b9250828202620002a281620001b2565b91508282048414831517620002bc57620002bb62000249565b5b5092915050565b7f4e487b7100000000000000000000000000000000000000000000000000000000600052601260045260246000fd5b6000620002ff82620001b2565b91506200030c83620001b2565b9250826200031f576200031e620002c3565b5b828204905092915050565b615298806200033a6000396000f3fe6080604052600436106101dc5760003560e01c80637adbf97311610102578063b18b78dd11610095578063d56833e711610064578063d56833e714610711578063d5a91f101461073a578063f579f88214610756578063fb632b7c1461079a576101e3565b8063b18b78dd14610655578063b69ef8a814610680578063ca4f2afc146106ab578063cdf92c27146106d4576101e3565b8063812f0037116100d1578063812f0037146105995780638809ab2e146105c4578063a2943608146105ed578063ac68a4461461062a576101e3565b80637adbf973146104cb5780637fbdb56b146104f45780637fd6f15c14610531578063800fd8da1461055c576101e3565b80634fe7b6441161017a5780635cf54b04116101495780635cf54b041461041e578063626765691461043a57806365e17c9d14610463578063785ecb371461048e576101e3565b80634fe7b6441461036457806354b7faae146103a15780635badbe4c146103ca5780635c34471f146103f5576101e3565b806327bce91b116101b657806327bce91b146102aa57806329bc3b85146102d5578063357401f5146103125780633dd8f1a61461033b576101e3565b80630a6abd1a146101e85780630cd2eb6c1461022557806322af00fa14610262576101e3565b366101e357005b600080fd5b3480156101f457600080fd5b5061020f600480360381019061020a9190613386565b6107c5565b60405161021c91906133cc565b60405180910390f35b34801561023157600080fd5b5061024c60048036038101906102479190613386565b6107dd565b6040516102599190613402565b60405180910390f35b34801561026e57600080fd5b5061028960048036038101906102849190613449565b6107fd565b6040516102a19c9b9a99989796959493929190613556565b60405180910390f35b3480156102b657600080fd5b506102bf610a55565b6040516102cc91906133cc565b60405180910390f35b3480156102e157600080fd5b506102fc60048036038101906102f79190613449565b610a5b565b6040516103099190613402565b60405180910390f35b34801561031e57600080fd5b5061033960048036038101906103349190613449565b610a7b565b005b34801561034757600080fd5b50610362600480360381019061035d9190613625565b610c56565b005b34801561037057600080fd5b5061038b60048036038101906103869190613665565b610d92565b6040516103989190613777565b60405180910390f35b3480156103ad57600080fd5b506103c860048036038101906103c391906137c5565b610e73565b005b3480156103d657600080fd5b506103df610f45565b6040516103ec91906133cc565b60405180910390f35b34801561040157600080fd5b5061041c60048036038101906104179190613386565b610f4b565b005b6104386004803603810190610433919061393a565b611015565b005b34801561044657600080fd5b50610461600480360381019061045c9190613b1d565b6113bf565b005b34801561046f57600080fd5b5061047861163c565b6040516104859190613b79565b60405180910390f35b34801561049a57600080fd5b506104b560048036038101906104b09190613449565b611662565b6040516104c29190613402565b60405180910390f35b3480156104d757600080fd5b506104f260048036038101906104ed9190613bd2565b611682565b005b34801561050057600080fd5b5061051b60048036038101906105169190613665565b61168e565b60405161052891906133cc565b60405180910390f35b34801561053d57600080fd5b506105466116b3565b60405161055391906133cc565b60405180910390f35b34801561056857600080fd5b50610583600480360381019061057e9190613665565b6116b9565b6040516105909190613c70565b60405180910390f35b3480156105a557600080fd5b506105ae61179a565b6040516105bb91906133cc565b60405180910390f35b3480156105d057600080fd5b506105eb60048036038101906105e69190613b1d565b6117a0565b005b3480156105f957600080fd5b50610614600480360381019061060f9190613665565b611a47565b6040516106219190613ce0565b60405180910390f35b34801561063657600080fd5b5061063f611b00565b60405161064c91906133cc565b60405180910390f35b34801561066157600080fd5b5061066a611b06565b6040516106779190613d11565b60405180910390f35b34801561068c57600080fd5b50610695611b15565b6040516106a291906133cc565b60405180910390f35b3480156106b757600080fd5b506106d260048036038101906106cd9190613d84565b611b1d565b005b3480156106e057600080fd5b506106fb60048036038101906106f69190613449565b611b30565b6040516107089190613402565b60405180910390f35b34801561071d57600080fd5b5061073860048036038101906107339190613625565b611b50565b005b610754600480360381019061074f9190613dd7565b611c8c565b005b34801561076257600080fd5b5061077d60048036038101906107789190613386565b611e88565b604051610791989796959493929190613e55565b60405180910390f35b3480156107a657600080fd5b506107af612007565b6040516107bc91906133cc565b60405180910390f35b60126020528060005260406000206000915090505481565b60176020528060005260406000206000915054906101000a900460ff1681565b601160205280600052604060002060009150905080600001549080600101549080600201549080600301805461083290613f10565b80601f016020809104026020016040519081016040528092919081815260200182805461085e90613f10565b80156108ab5780601f10610880576101008083540402835291602001916108ab565b820191906000526020600020905b81548152906001019060200180831161088e57829003601f168201915b5050505050908060040180546108c090613f10565b80601f01602080910402602001604051908101604052809291908181526020018280546108ec90613f10565b80156109395780601f1061090e57610100808354040283529160200191610939565b820191906000526020600020905b81548152906001019060200180831161091c57829003601f168201915b50505050509080600501805461094e90613f10565b80601f016020809104026020016040519081016040528092919081815260200182805461097a90613f10565b80156109c75780601f1061099c576101008083540402835291602001916109c7565b820191906000526020600020905b8154815290600101906020018083116109aa57829003601f168201915b5050505050908060060160009054906101000a900473ffffffffffffffffffffffffffffffffffffffff16908060070160009054906101000a900473ffffffffffffffffffffffffffffffffffffffff16908060080160009054906101000a900473ffffffffffffffffffffffffffffffffffffffff169080600901549080600a01549080600b015490508c565b60085481565b60146020528060005260406000206000915054906101000a900460ff1681565b806011600082815260200190815260200160002060060160009054906101000a900473ffffffffffffffffffffffffffffffffffffffff1673ffffffffffffffffffffffffffffffffffffffff163373ffffffffffffffffffffffffffffffffffffffff1614610aea57600080fd5b81600015156014600083815260200190815260200160002060009054906101000a900460ff16151514610b1c57600080fd5b82600015156016600083815260200190815260200160002060009054906101000a900460ff16151514610b4e57600080fd5b6000601160008681526020019081526020016000206002015490506011600086815260200190815260200160002060060160009054906101000a900473ffffffffffffffffffffffffffffffffffffffff1673ffffffffffffffffffffffffffffffffffffffff166108fc829081150290604051600060405180830381858888f19350505050158015610be5573d6000803e3d6000fd5b5060016016600087815260200190815260200160002060006101000a81548160ff0219169083151502179055507f235d46110bd351ab7520032cb99e04149d3ec65febddb9734597caa17ab0dc3b85338342604051610c479493929190613f41565b60405180910390a15050505050565b6000610c6b600e54636267656960e01b61200d565b9050610cb76040518060400160405280600481526020017f6461746500000000000000000000000000000000000000000000000000000000815250838361203d9092919063ffffffff16565b610d366040518060400160405280600681526020017f6d61726b657400000000000000000000000000000000000000000000000000008152506040518060400160405280600681526020017f6372656174650000000000000000000000000000000000000000000000000000815250836120709092919063ffffffff16565b610d806040518060400160405280600781526020017f73706f7274496400000000000000000000000000000000000000000000000000815250848361203d9092919063ffffffff16565b610d8c816009546120a3565b50505050565b610d9a61317c565b6000600f60008581526020019081526020016000208381548110610dc157610dc0613f86565b5b906000526020600020018054610dd690613f10565b80601f0160208091040260200160405190810160405280929190818152602001828054610e0290613f10565b8015610e4f5780601f10610e2457610100808354040283529160200191610e4f565b820191906000526020600020905b815481529060010190602001808311610e3257829003601f168201915b5050505050806020019051810190610e679190614109565b90508091505092915050565b6000610e7d6120da565b90508073ffffffffffffffffffffffffffffffffffffffff1663a9059cbb84846040518363ffffffff1660e01b8152600401610eba9291906141b1565b6020604051808303816000875af1158015610ed9573d6000803e3d6000fd5b505050506040513d601f19601f82011682018060405250810190610efd9190614206565b610f405782826040517f7ab2f977000000000000000000000000000000000000000000000000000000008152600401610f379291906141b1565b60405180910390fd5b505050565b600a5481565b6000601260008381526020019081526020016000205490506000600190505b818111610fe4576000601360008581526020019081526020016000206000838152602001908152602001600020549050600015156015600083815260200190815260200160002060009054906101000a900460ff16151503610fd057610fcf81612104565b5b508080610fdc90614262565b915050610f6a565b5060016017600084815260200190815260200160002060006101000a81548160ff0219169083151502179055505050565b816011600082815260200190815260200160002060060160009054906101000a900473ffffffffffffffffffffffffffffffffffffffff1673ffffffffffffffffffffffffffffffffffffffff163373ffffffffffffffffffffffffffffffffffffffff160361108457600080fd5b82600015156014600083815260200190815260200160002060009054906101000a900460ff161515146110b657600080fd5b83600015156016600083815260200190815260200160002060009054906101000a900460ff161515146110e857600080fd5b600060116000878152602001908152602001600020600201549050600060116000888152602001908152602001600020600101549050813414611160576040517f08c379a0000000000000000000000000000000000000000000000000000000008152600401611157906142f6565b60405180910390fd5b6011600088815260200190815260200160002060030160405160200161118691906143b9565b60405160208183030381529060405280519060200120866040516020016111ad9190614401565b60405160208183030381529060405280519060200120036111cd57600080fd5b601060008281526020019081526020016000206004016040516020016111f391906143b9565b604051602081830303815290604052805190602001208660405160200161121a9190614401565b60405160208183030381529060405280519060200120148061129c57506010600082815260200190815260200160002060050160405160200161125d91906143b9565b60405160208183030381529060405280519060200120866040516020016112849190614401565b60405160208183030381529060405280519060200120145b6112a557600080fd5b856011600089815260200190815260200160002060040190816112c891906145a5565b50816011600089815260200190815260200160002060020160008282546112ef9190614677565b92505081905550336011600089815260200190815260200160002060070160006101000a81548173ffffffffffffffffffffffffffffffffffffffff021916908373ffffffffffffffffffffffffffffffffffffffff16021790555060016014600089815260200190815260200160002060006101000a81548160ff0219169083151502179055507f669ae52d7b5d9e3ed63ded5369d7054f070a35d9ccdc354f07402041f05ec64087338885426040516113ae9594939291906146ab565b60405180910390a150505050505050565b816005600082815260200190815260200160002060009054906101000a900473ffffffffffffffffffffffffffffffffffffffff1673ffffffffffffffffffffffffffffffffffffffff163373ffffffffffffffffffffffffffffffffffffffff1614611461576040517f08c379a000000000000000000000000000000000000000000000000000000000815260040161145890614777565b60405180910390fd5b6005600082815260200190815260200160002060006101000a81549073ffffffffffffffffffffffffffffffffffffffff0219169055807f7cc135e0cebb02c3480ae5d74d377283180a2601f8f644edf7987b009316c63a60405160405180910390a281600f600085815260200190815260200160002090805190602001906114eb9291906131a7565b506114f461317c565b60005b83518160ff16101561163557611510858260ff16610d92565b91508160000151601060008460000151815260200190815260200160002060000181905550600460106000846000015181526020019081526020016000206001018190555081602001516010600084600001518152602001908152602001600020600201819055508160400151601060008460000151815260200190815260200160002060040190816115a391906145a5565b508160600151601060008460000151815260200190815260200160002060050190816115cf91906145a5565b507fc682a3da0397a6698f70b3734c4c00b85ced0179e10e4bcb3504ee017dd780c2826000015160048460200151856040015186606001514260405161161a969594939291906147d2565b60405180910390a1808061162d90614841565b9150506114f7565b5050505050565b600660009054906101000a900473ffffffffffffffffffffffffffffffffffffffff1681565b60156020528060005260406000206000915054906101000a900460ff1681565b61168b816127c0565b50565b6013602052816000526040600020602052806000526040600020600091509150505481565b60075481565b6116c1613200565b6000600f600085815260200190815260200160002083815481106116e8576116e7613f86565b5b9060005260206000200180546116fd90613f10565b80601f016020809104026020016040519081016040528092919081815260200182805461172990613f10565b80156117765780601f1061174b57610100808354040283529160200191611776565b820191906000526020600020905b81548152906001019060200180831161175957829003601f168201915b505050505080602001905181019061178e919061490e565b90508091505092915050565b600d5481565b816005600082815260200190815260200160002060009054906101000a900473ffffffffffffffffffffffffffffffffffffffff1673ffffffffffffffffffffffffffffffffffffffff163373ffffffffffffffffffffffffffffffffffffffff1614611842576040517f08c379a000000000000000000000000000000000000000000000000000000000815260040161183990614777565b60405180910390fd5b6005600082815260200190815260200160002060006101000a81549073ffffffffffffffffffffffffffffffffffffffff0219169055807f7cc135e0cebb02c3480ae5d74d377283180a2601f8f644edf7987b009316c63a60405160405180910390a281600f600085815260200190815260200160002090805190602001906118cc9291906131a7565b506118d5613200565b60005b83518160ff161015611a40576118f1858260ff166116b9565b9150816000015160106000846000015181526020019081526020016000206000018190555060046010600084600001518152602001908152602001600020600101819055508160200151601060008460000151815260200190815260200160002060030160006101000a81548160ff021916908360ff1602179055508160400151601060008460000151815260200190815260200160002060030160016101000a81548160ff021916908360ff1602179055508160600151601060008460000151815260200190815260200160002060030160026101000a81548160ff021916908360ff1602179055507f1811d3322adda9d2250a02b4cdddf15854ead8d43f12d97e556d8b328a3dee788260000151600484602001518560400151866060015142604051611a259695949392919061493b565b60405180910390a18080611a3890614841565b9150506118d8565b5050505050565b600f6020528160005260406000208181548110611a6357600080fd5b90600052602060002001600091509150508054611a7f90613f10565b80601f0160208091040260200160405190810160405280929190818152602001828054611aab90613f10565b8015611af85780601f10611acd57610100808354040283529160200191611af8565b820191906000526020600020905b815481529060010190602001808311611adb57829003601f168201915b505050505081565b600c5481565b6000611b10612804565b905090565b600047905090565b611b2b83600954848461282e565b505050565b60166020528060005260406000206000915054906101000a900460ff1681565b6000611b65600e54638809ab2e60e01b61200d565b9050611bb16040518060400160405280600481526020017f6461746500000000000000000000000000000000000000000000000000000000815250838361203d9092919063ffffffff16565b611c306040518060400160405280600681526020017f6d61726b657400000000000000000000000000000000000000000000000000008152506040518060400160405280600781526020017f7265736f6c766500000000000000000000000000000000000000000000000000815250836120709092919063ffffffff16565b611c7a6040518060400160405280600781526020017f73706f7274496400000000000000000000000000000000000000000000000000815250848361203d9092919063ffffffff16565b611c86816009546120a3565b50505050565b803414611cce576040517f08c379a0000000000000000000000000000000000000000000000000000000008152600401611cc5906149e8565b60405180910390fd5b60086000815480929190611ce190614262565b9190505550600854601160006008548152602001908152602001600020600001819055508260116000600854815260200190815260200160002060010181905550816011600060085481526020019081526020016000206003019081611d4791906145a5565b5080601160006008548152602001908152602001600020600201819055503360116000600854815260200190815260200160002060060160006101000a81548173ffffffffffffffffffffffffffffffffffffffff021916908373ffffffffffffffffffffffffffffffffffffffff1602179055504260116000600854815260200190815260200160002060090181905550601260008481526020019081526020016000206000815480929190611dfd90614262565b919050555060085460136000858152602001908152602001600020600060126000878152602001908152602001600020548152602001908152602001600020819055507fbd95184552895ef8f2514e9faa15c2924fe606d55b2de747902088d04f9822aa6008548433858542604051611e7b96959493929190614a08565b60405180910390a1505050565b60106020528060005260406000206000915090508060000154908060010154908060020154908060030160009054906101000a900460ff16908060030160019054906101000a900460ff16908060030160029054906101000a900460ff1690806004018054611ef690613f10565b80601f0160208091040260200160405190810160405280929190818152602001828054611f2290613f10565b8015611f6f5780601f10611f4457610100808354040283529160200191611f6f565b820191906000526020600020905b815481529060010190602001808311611f5257829003601f168201915b505050505090806005018054611f8490613f10565b80601f0160208091040260200160405190810160405280929190818152602001828054611fb090613f10565b8015611ffd5780601f10611fd257610100808354040283529160200191611ffd565b820191906000526020600020905b815481529060010190602001808311611fe057829003601f168201915b5050505050905088565b600b5481565b612015613234565b61201d613234565b61203484308584612941909392919063ffffffff16565b91505092915050565b6120548284608001516129f190919063ffffffff16565b61206b818460800151612a1690919063ffffffff16565b505050565b6120878284608001516129f190919063ffffffff16565b61209e8184608001516129f190919063ffffffff16565b505050565b60006120d2600360009054906101000a900473ffffffffffffffffffffffffffffffffffffffff168484612a46565b905092915050565b6000600260009054906101000a900473ffffffffffffffffffffffffffffffffffffffff16905090565b80600015156015600083815260200190815260200160002060009054906101000a900460ff1615151461213657600080fd5b60006011600084815260200190815260200160002060010154905060086010600083815260200190815260200160002060030160029054906101000a900460ff1660ff161461218457600080fd5b60006011600085815260200190815260200160002060020154905060006064600754836121b19190614a70565b6121bb9190614ae1565b90506010600084815260200190815260200160002060030160019054906101000a900460ff1660ff166010600085815260200190815260200160002060030160009054906101000a900460ff1660ff1611156123e857601060008481526020019081526020016000206004016011600087815260200190815260200160002060050190816122499190614b3d565b506011600086815260200190815260200160002060050160405160200161227091906143b9565b60405160208183030381529060405280519060200120601160008781526020019081526020016000206003016040516020016122ac91906143b9565b6040516020818303038152906040528051906020012003612357576011600086815260200190815260200160002060060160009054906101000a900473ffffffffffffffffffffffffffffffffffffffff166011600087815260200190815260200160002060080160006101000a81548173ffffffffffffffffffffffffffffffffffffffff021916908373ffffffffffffffffffffffffffffffffffffffff1602179055506123e3565b6011600086815260200190815260200160002060070160009054906101000a900473ffffffffffffffffffffffffffffffffffffffff166011600087815260200190815260200160002060080160006101000a81548173ffffffffffffffffffffffffffffffffffffffff021916908373ffffffffffffffffffffffffffffffffffffffff1602179055505b612610565b6010600084815260200190815260200160002060030160009054906101000a900460ff1660ff166010600085815260200190815260200160002060030160019054906101000a900460ff1660ff16111561260f57601060008481526020019081526020016000206005016011600087815260200190815260200160002060050190816124749190614b3d565b506011600086815260200190815260200160002060050160405160200161249b91906143b9565b60405160208183030381529060405280519060200120601160008781526020019081526020016000206003016040516020016124d791906143b9565b6040516020818303038152906040528051906020012003612582576011600086815260200190815260200160002060060160009054906101000a900473ffffffffffffffffffffffffffffffffffffffff166011600087815260200190815260200160002060080160006101000a81548173ffffffffffffffffffffffffffffffffffffffff021916908373ffffffffffffffffffffffffffffffffffffffff16021790555061260e565b6011600086815260200190815260200160002060070160009054906101000a900473ffffffffffffffffffffffffffffffffffffffff166011600087815260200190815260200160002060080160006101000a81548173ffffffffffffffffffffffffffffffffffffffff021916908373ffffffffffffffffffffffffffffffffffffffff1602179055505b5b5b600660009054906101000a900473ffffffffffffffffffffffffffffffffffffffff1673ffffffffffffffffffffffffffffffffffffffff166108fc829081150290604051600060405180830381858888f19350505050158015612678573d6000803e3d6000fd5b506011600086815260200190815260200160002060080160009054906101000a900473ffffffffffffffffffffffffffffffffffffffff1673ffffffffffffffffffffffffffffffffffffffff166108fc82846126d59190614c25565b9081150290604051600060405180830381858888f19350505050158015612700573d6000803e3d6000fd5b5060016015600087815260200190815260200160002060006101000a81548160ff0219169083151502179055507fac6048eb81b88f8a0a7f2a568ea0676738207d4fdf9b21653d8463057f3e7b19856011600088815260200190815260200160002060080160009054906101000a900473ffffffffffffffffffffffffffffffffffffffff16601160008981526020019081526020016000206005018585426040516127b196959493929190614cdd565b60405180910390a15050505050565b80600360006101000a81548173ffffffffffffffffffffffffffffffffffffffff021916908373ffffffffffffffffffffffffffffffffffffffff16021790555050565b6000600360009054906101000a900473ffffffffffffffffffffffffffffffffffffffff16905090565b60006005600086815260200190815260200160002060009054906101000a900473ffffffffffffffffffffffffffffffffffffffff1690506005600086815260200190815260200160002060006101000a81549073ffffffffffffffffffffffffffffffffffffffff0219169055847fe1fe3afa0f7f761ff0a8b89086790efd5140d2907ebd5b7ff6bfcb5e075fd4c560405160405180910390a28073ffffffffffffffffffffffffffffffffffffffff16636ee4d553868686866040518563ffffffff1660e01b81526004016129089493929190614d54565b600060405180830381600087803b15801561292257600080fd5b505af1158015612936573d6000803e3d6000fd5b505050505050505050565b612949613234565b6129598560800151610100612b10565b508385600001818152505082856020019073ffffffffffffffffffffffffffffffffffffffff16908173ffffffffffffffffffffffffffffffffffffffff16815250508185604001907bffffffffffffffffffffffffffffffffffffffffffffffffffffffff191690817bffffffffffffffffffffffffffffffffffffffffffffffffffffffff191681525050849050949350505050565b6129fe8260038351612b7a565b612a118183612cff90919063ffffffff16565b505050565b67ffffffffffffffff811115612a3557612a308282612d21565b612a42565b612a4182600083612b7a565b5b5050565b6000806004549050600181612a5b9190614677565b6004819055506000633c6d41b960e01b600080876000015188604001518660028b6080015160000151604051602401612a9a9796959493929190614d99565b604051602081830303815290604052907bffffffffffffffffffffffffffffffffffffffffffffffffffffffff19166020820180517bffffffffffffffffffffffffffffffffffffffffffffffffffffffff83818316178352505050509050612b0586838684612d6d565b925050509392505050565b612b186132a1565b6000602083612b279190614e0f565b14612b5357602082612b399190614e0f565b6020612b459190614c25565b82612b509190614677565b91505b81836020018181525050604051808452600081528281016020016040525082905092915050565b60178167ffffffffffffffff1611612bb157612bab8160058460ff16901b60ff161784612f0290919063ffffffff16565b50612cfa565b60ff8167ffffffffffffffff1611612c0757612be0601860058460ff16901b1784612f0290919063ffffffff16565b50612c018167ffffffffffffffff16600185612f229092919063ffffffff16565b50612cf9565b61ffff8167ffffffffffffffff1611612c5e57612c37601960058460ff16901b1784612f0290919063ffffffff16565b50612c588167ffffffffffffffff16600285612f229092919063ffffffff16565b50612cf8565b63ffffffff8167ffffffffffffffff1611612cb757612c90601a60058460ff16901b1784612f0290919063ffffffff16565b50612cb18167ffffffffffffffff16600485612f229092919063ffffffff16565b50612cf7565b612cd4601b60058460ff16901b1784612f0290919063ffffffff16565b50612cf58167ffffffffffffffff16600885612f229092919063ffffffff16565b505b5b5b5b505050565b612d076132a1565b612d1983846000015151848551612f44565b905092915050565b612d3f60026005600660ff16901b1783612f0290919063ffffffff16565b50612d698282604051602001612d5591906133cc565b604051602081830303815290604052613033565b5050565b60003084604051602001612d82929190614ebb565b604051602081830303815290604052805190602001209050846005600083815260200190815260200160002060006101000a81548173ffffffffffffffffffffffffffffffffffffffff021916908373ffffffffffffffffffffffffffffffffffffffff160217905550807fb5e6e01e79f91267dc17b4e6314d5d4d03593d2ceee0fbb452b750bd70ea5af960405160405180910390a2600260009054906101000a900473ffffffffffffffffffffffffffffffffffffffff1673ffffffffffffffffffffffffffffffffffffffff16634000aea08685856040518463ffffffff1660e01b8152600401612e7893929190614ee7565b6020604051808303816000875af1158015612e97573d6000803e3d6000fd5b505050506040513d601f19601f82011682018060405250810190612ebb9190614206565b612efa576040517f08c379a0000000000000000000000000000000000000000000000000000000008152600401612ef190614f97565b60405180910390fd5b949350505050565b612f0a6132a1565b612f1a8384600001515184613058565b905092915050565b612f2a6132a1565b612f3b8485600001515185856130ae565b90509392505050565b612f4c6132a1565b8251821115612f5a57600080fd5b84602001518285612f6b9190614677565b1115612fa057612f9f856002612f9088602001518887612f8b9190614677565b61313c565b612f9a9190614a70565b613158565b5b600080865180518760208301019350808887011115612fbf5787860182525b60208701925050505b602084106130065780518252602082612fe19190614677565b9150602081612ff09190614677565b9050602084612fff9190614c25565b9350612fc8565b60006001856020036101000a03905080198251168184511681811785525050508692505050949350505050565b6130408260028351612b7a565b6130538183612cff90919063ffffffff16565b505050565b6130606132a1565b836020015183106130865761308584600286602001516130809190614a70565b613158565b5b835180516020858301018481538186036130a1576001820183525b5050508390509392505050565b6130b66132a1565b846020015184836130c79190614677565b11156130ef576130ee85600286856130df9190614677565b6130e99190614a70565b613158565b5b600060018361010061310191906150ea565b61310b9190614c25565b9050855183868201018583198251161781528151858801111561312e5784870182525b505085915050949350505050565b60008183111561314e57829050613152565b8190505b92915050565b60008260000151905061316b8383612b10565b506131768382612cff565b50505050565b6040518060800160405280600080191681526020016000815260200160608152602001606081525090565b8280548282559060005260206000209081019282156131ef579160200282015b828111156131ee5782518290816131de9190615190565b50916020019190600101906131c7565b5b5090506131fc91906132bb565b5090565b604051806080016040528060008019168152602001600060ff168152602001600060ff168152602001600060ff1681525090565b6040518060a0016040528060008019168152602001600073ffffffffffffffffffffffffffffffffffffffff16815260200160007bffffffffffffffffffffffffffffffffffffffffffffffffffffffff191681526020016000815260200161329b6132a1565b81525090565b604051806040016040528060608152602001600081525090565b5b808211156132db57600081816132d291906132df565b506001016132bc565b5090565b5080546132eb90613f10565b6000825580601f106132fd575061331c565b601f01602090049060005260206000209081019061331b919061331f565b5b50565b5b80821115613338576000816000905550600101613320565b5090565b6000604051905090565b600080fd5b600080fd5b6000819050919050565b61336381613350565b811461336e57600080fd5b50565b6000813590506133808161335a565b92915050565b60006020828403121561339c5761339b613346565b5b60006133aa84828501613371565b91505092915050565b6000819050919050565b6133c6816133b3565b82525050565b60006020820190506133e160008301846133bd565b92915050565b60008115159050919050565b6133fc816133e7565b82525050565b600060208201905061341760008301846133f3565b92915050565b613426816133b3565b811461343157600080fd5b50565b6000813590506134438161341d565b92915050565b60006020828403121561345f5761345e613346565b5b600061346d84828501613434565b91505092915050565b61347f81613350565b82525050565b600081519050919050565b600082825260208201905092915050565b60005b838110156134bf5780820151818401526020810190506134a4565b60008484015250505050565b6000601f19601f8301169050919050565b60006134e782613485565b6134f18185613490565b93506135018185602086016134a1565b61350a816134cb565b840191505092915050565b600073ffffffffffffffffffffffffffffffffffffffff82169050919050565b600061354082613515565b9050919050565b61355081613535565b82525050565b60006101808201905061356c600083018f6133bd565b613579602083018e613476565b613586604083018d6133bd565b8181036060830152613598818c6134dc565b905081810360808301526135ac818b6134dc565b905081810360a08301526135c0818a6134dc565b90506135cf60c0830189613547565b6135dc60e0830188613547565b6135ea610100830187613547565b6135f86101208301866133bd565b6136066101408301856133bd565b6136146101608301846133bd565b9d9c50505050505050505050505050565b6000806040838503121561363c5761363b613346565b5b600061364a85828601613434565b925050602061365b85828601613434565b9150509250929050565b6000806040838503121561367c5761367b613346565b5b600061368a85828601613371565b925050602061369b85828601613434565b9150509250929050565b6136ae81613350565b82525050565b6136bd816133b3565b82525050565b600082825260208201905092915050565b60006136df82613485565b6136e981856136c3565b93506136f98185602086016134a1565b613702816134cb565b840191505092915050565b600060808301600083015161372560008601826136a5565b50602083015161373860208601826136b4565b506040830151848203604086015261375082826136d4565b9150506060830151848203606086015261376a82826136d4565b9150508091505092915050565b60006020820190508181036000830152613791818461370d565b905092915050565b6137a281613535565b81146137ad57600080fd5b50565b6000813590506137bf81613799565b92915050565b600080604083850312156137dc576137db613346565b5b60006137ea858286016137b0565b92505060206137fb85828601613434565b9150509250929050565b600080fd5b600080fd5b7f4e487b7100000000000000000000000000000000000000000000000000000000600052604160045260246000fd5b613847826134cb565b810181811067ffffffffffffffff821117156138665761386561380f565b5b80604052505050565b600061387961333c565b9050613885828261383e565b919050565b600067ffffffffffffffff8211156138a5576138a461380f565b5b6138ae826134cb565b9050602081019050919050565b82818337600083830152505050565b60006138dd6138d88461388a565b61386f565b9050828152602081018484840111156138f9576138f861380a565b5b6139048482856138bb565b509392505050565b600082601f83011261392157613920613805565b5b81356139318482602086016138ca565b91505092915050565b6000806040838503121561395157613950613346565b5b600061395f85828601613434565b925050602083013567ffffffffffffffff8111156139805761397f61334b565b5b61398c8582860161390c565b9150509250929050565b600067ffffffffffffffff8211156139b1576139b061380f565b5b602082029050602081019050919050565b600080fd5b600067ffffffffffffffff8211156139e2576139e161380f565b5b6139eb826134cb565b9050602081019050919050565b6000613a0b613a06846139c7565b61386f565b905082815260208101848484011115613a2757613a2661380a565b5b613a328482856138bb565b509392505050565b600082601f830112613a4f57613a4e613805565b5b8135613a5f8482602086016139f8565b91505092915050565b6000613a7b613a7684613996565b61386f565b90508083825260208201905060208402830185811115613a9e57613a9d6139c2565b5b835b81811015613ae557803567ffffffffffffffff811115613ac357613ac2613805565b5b808601613ad08982613a3a565b85526020850194505050602081019050613aa0565b5050509392505050565b600082601f830112613b0457613b03613805565b5b8135613b14848260208601613a68565b91505092915050565b60008060408385031215613b3457613b33613346565b5b6000613b4285828601613371565b925050602083013567ffffffffffffffff811115613b6357613b6261334b565b5b613b6f85828601613aef565b9150509250929050565b6000602082019050613b8e6000830184613547565b92915050565b6000613b9f82613515565b9050919050565b613baf81613b94565b8114613bba57600080fd5b50565b600081359050613bcc81613ba6565b92915050565b600060208284031215613be857613be7613346565b5b6000613bf684828501613bbd565b91505092915050565b600060ff82169050919050565b613c1581613bff565b82525050565b608082016000820151613c3160008501826136a5565b506020820151613c446020850182613c0c565b506040820151613c576040850182613c0c565b506060820151613c6a6060850182613c0c565b50505050565b6000608082019050613c856000830184613c1b565b92915050565b600081519050919050565b600082825260208201905092915050565b6000613cb282613c8b565b613cbc8185613c96565b9350613ccc8185602086016134a1565b613cd5816134cb565b840191505092915050565b60006020820190508181036000830152613cfa8184613ca7565b905092915050565b613d0b81613b94565b82525050565b6000602082019050613d266000830184613d02565b92915050565b60007fffffffff0000000000000000000000000000000000000000000000000000000082169050919050565b613d6181613d2c565b8114613d6c57600080fd5b50565b600081359050613d7e81613d58565b92915050565b600080600060608486031215613d9d57613d9c613346565b5b6000613dab86828701613371565b9350506020613dbc86828701613d6f565b9250506040613dcd86828701613434565b9150509250925092565b600080600060608486031215613df057613def613346565b5b6000613dfe86828701613371565b935050602084013567ffffffffffffffff811115613e1f57613e1e61334b565b5b613e2b8682870161390c565b9250506040613e3c86828701613434565b9150509250925092565b613e4f81613bff565b82525050565b600061010082019050613e6b600083018b613476565b613e78602083018a6133bd565b613e8560408301896133bd565b613e926060830188613e46565b613e9f6080830187613e46565b613eac60a0830186613e46565b81810360c0830152613ebe81856134dc565b905081810360e0830152613ed281846134dc565b90509998505050505050505050565b7f4e487b7100000000000000000000000000000000000000000000000000000000600052602260045260246000fd5b60006002820490506001821680613f2857607f821691505b602082108103613f3b57613f3a613ee1565b5b50919050565b6000608082019050613f5660008301876133bd565b613f636020830186613d02565b613f7060408301856133bd565b613f7d60608301846133bd565b95945050505050565b7f4e487b7100000000000000000000000000000000000000000000000000000000600052603260045260246000fd5b600080fd5b600080fd5b600081519050613fce8161335a565b92915050565b600081519050613fe38161341d565b92915050565b6000613ffc613ff78461388a565b61386f565b9050828152602081018484840111156140185761401761380a565b5b6140238482856134a1565b509392505050565b600082601f8301126140405761403f613805565b5b8151614050848260208601613fe9565b91505092915050565b60006080828403121561406f5761406e613fb5565b5b614079608061386f565b9050600061408984828501613fbf565b600083015250602061409d84828501613fd4565b602083015250604082015167ffffffffffffffff8111156140c1576140c0613fba565b5b6140cd8482850161402b565b604083015250606082015167ffffffffffffffff8111156140f1576140f0613fba565b5b6140fd8482850161402b565b60608301525092915050565b60006020828403121561411f5761411e613346565b5b600082015167ffffffffffffffff81111561413d5761413c61334b565b5b61414984828501614059565b91505092915050565b6000819050919050565b600061417761417261416d84613515565b614152565b613515565b9050919050565b60006141898261415c565b9050919050565b600061419b8261417e565b9050919050565b6141ab81614190565b82525050565b60006040820190506141c660008301856141a2565b6141d360208301846133bd565b9392505050565b6141e3816133e7565b81146141ee57600080fd5b50565b600081519050614200816141da565b92915050565b60006020828403121561421c5761421b613346565b5b600061422a848285016141f1565b91505092915050565b7f4e487b7100000000000000000000000000000000000000000000000000000000600052601160045260246000fd5b600061426d826133b3565b91507fffffffffffffffffffffffffffffffffffffffffffffffffffffffffffffffff820361429f5761429e614233565b5b600182019050919050565b7f4d757374206d617463682062657420616d6f756e740000000000000000000000600082015250565b60006142e0601583613490565b91506142eb826142aa565b602082019050919050565b6000602082019050818103600083015261430f816142d3565b9050919050565b600081905092915050565b60008190508160005260206000209050919050565b6000815461434381613f10565b61434d8186614316565b94506001821660008114614368576001811461437d576143b0565b60ff19831686528115158202860193506143b0565b61438685614321565b60005b838110156143a857815481890152600182019150602081019050614389565b838801955050505b50505092915050565b60006143c58284614336565b915081905092915050565b60006143db82613485565b6143e58185614316565b93506143f58185602086016134a1565b80840191505092915050565b600061440d82846143d0565b915081905092915050565b60006020601f8301049050919050565b600082821b905092915050565b6000600883026144657fffffffffffffffffffffffffffffffffffffffffffffffffffffffffffffffff82614428565b61446f8683614428565b95508019841693508086168417925050509392505050565b60006144a261449d614498846133b3565b614152565b6133b3565b9050919050565b6000819050919050565b6144bc83614487565b6144d06144c8826144a9565b848454614435565b825550505050565b600090565b6144e56144d8565b6144f08184846144b3565b505050565b5b81811015614514576145096000826144dd565b6001810190506144f6565b5050565b601f8211156145595761452a81614321565b61453384614418565b81016020851015614542578190505b61455661454e85614418565b8301826144f5565b50505b505050565b600082821c905092915050565b600061457c6000198460080261455e565b1980831691505092915050565b6000614595838361456b565b9150826002028217905092915050565b6145ae82613485565b67ffffffffffffffff8111156145c7576145c661380f565b5b6145d18254613f10565b6145dc828285614518565b600060209050601f83116001811461460f57600084156145fd578287015190505b6146078582614589565b86555061466f565b601f19841661461d86614321565b60005b8281101561464557848901518255600182019150602085019450602081019050614620565b86831015614662578489015161465e601f89168261456b565b8355505b6001600288020188555050505b505050505050565b6000614682826133b3565b915061468d836133b3565b92508282019050808211156146a5576146a4614233565b5b92915050565b600060a0820190506146c060008301886133bd565b6146cd6020830187613d02565b81810360408301526146df81866134dc565b90506146ee60608301856133bd565b6146fb60808301846133bd565b9695505050505050565b7f536f75726365206d75737420626520746865206f7261636c65206f662074686560008201527f2072657175657374000000000000000000000000000000000000000000000000602082015250565b6000614761602883613490565b915061476c82614705565b604082019050919050565b6000602082019050818103600083015261479081614754565b9050919050565b6000819050919050565b60006147bc6147b76147b284614797565b614152565b6133b3565b9050919050565b6147cc816147a1565b82525050565b600060c0820190506147e76000830189613476565b6147f460208301886147c3565b61480160408301876133bd565b818103606083015261481381866134dc565b9050818103608083015261482781856134dc565b905061483660a08301846133bd565b979650505050505050565b600061484c82613bff565b915060ff820361485f5761485e614233565b5b600182019050919050565b61487381613bff565b811461487e57600080fd5b50565b6000815190506148908161486a565b92915050565b6000608082840312156148ac576148ab613fb5565b5b6148b6608061386f565b905060006148c684828501613fbf565b60008301525060206148da84828501614881565b60208301525060406148ee84828501614881565b604083015250606061490284828501614881565b60608301525092915050565b60006080828403121561492457614923613346565b5b600061493284828501614896565b91505092915050565b600060c0820190506149506000830189613476565b61495d60208301886147c3565b61496a6040830187613e46565b6149776060830186613e46565b6149846080830185613e46565b61499160a08301846133bd565b979650505050505050565b7f496e636f727265637420657468657220616d6f756e7420666f72206265740000600082015250565b60006149d2601e83613490565b91506149dd8261499c565b602082019050919050565b60006020820190508181036000830152614a01816149c5565b9050919050565b600060c082019050614a1d60008301896133bd565b614a2a6020830188613476565b614a376040830187613d02565b8181036060830152614a4981866134dc565b9050614a5860808301856133bd565b614a6560a08301846133bd565b979650505050505050565b6000614a7b826133b3565b9150614a86836133b3565b9250828202614a94816133b3565b91508282048414831517614aab57614aaa614233565b5b5092915050565b7f4e487b7100000000000000000000000000000000000000000000000000000000600052601260045260246000fd5b6000614aec826133b3565b9150614af7836133b3565b925082614b0757614b06614ab2565b5b828204905092915050565b600081549050614b2181613f10565b9050919050565b60008190508160005260206000209050919050565b818103614b4b575050614c23565b614b5482614b12565b67ffffffffffffffff811115614b6d57614b6c61380f565b5b614b778254613f10565b614b82828285614518565b6000601f831160018114614bb15760008415614b9f578287015490505b614ba98582614589565b865550614c1c565b601f198416614bbf87614b28565b9650614bca86614321565b60005b82811015614bf257848901548255600182019150600185019450602081019050614bcd565b86831015614c0f5784890154614c0b601f89168261456b565b8355505b6001600288020188555050505b5050505050505b565b6000614c30826133b3565b9150614c3b836133b3565b9250828203905081811115614c5357614c52614233565b5b92915050565b60008154614c6681613f10565b614c708186613490565b94506001821660008114614c8b5760018114614ca157614cd4565b60ff198316865281151560200286019350614cd4565b614caa85614321565b60005b83811015614ccc57815481890152600182019150602081019050614cad565b808801955050505b50505092915050565b600060c082019050614cf260008301896133bd565b614cff60208301886141a2565b8181036040830152614d118187614c59565b9050614d2060608301866133bd565b614d2d60808301856133bd565b614d3a60a08301846133bd565b979650505050505050565b614d4e81613d2c565b82525050565b6000608082019050614d696000830187613476565b614d7660208301866133bd565b614d836040830185614d45565b614d9060608301846133bd565b95945050505050565b600060e082019050614dae600083018a613d02565b614dbb60208301896133bd565b614dc86040830188613476565b614dd56060830187614d45565b614de260808301866133bd565b614def60a08301856133bd565b81810360c0830152614e018184613ca7565b905098975050505050505050565b6000614e1a826133b3565b9150614e25836133b3565b925082614e3557614e34614ab2565b5b828206905092915050565b6000614e4b8261417e565b9050919050565b60008160601b9050919050565b6000614e6a82614e52565b9050919050565b6000614e7c82614e5f565b9050919050565b614e94614e8f82614e40565b614e71565b82525050565b6000819050919050565b614eb5614eb0826133b3565b614e9a565b82525050565b6000614ec78285614e83565b601482019150614ed78284614ea4565b6020820191508190509392505050565b6000606082019050614efc6000830186613d02565b614f0960208301856133bd565b8181036040830152614f1b8184613ca7565b9050949350505050565b7f756e61626c6520746f207472616e73666572416e6443616c6c20746f206f726160008201527f636c650000000000000000000000000000000000000000000000000000000000602082015250565b6000614f81602383613490565b9150614f8c82614f25565b604082019050919050565b60006020820190508181036000830152614fb081614f74565b9050919050565b60008160011c9050919050565b6000808291508390505b600185111561500e57808604811115614fea57614fe9614233565b5b6001851615614ff95780820291505b808102905061500785614fb7565b9450614fce565b94509492505050565b60008261502757600190506150e3565b8161503557600090506150e3565b816001811461504b576002811461505557615084565b60019150506150e3565b60ff84111561506757615066614233565b5b8360020a91508482111561507e5761507d614233565b5b506150e3565b5060208310610133831016604e8410600b84101617156150b95782820a9050838111156150b4576150b3614233565b5b6150e3565b6150c68484846001614fc4565b925090508184048111156150dd576150dc614233565b5b81810290505b9392505050565b60006150f5826133b3565b9150615100836133b3565b925061512d7fffffffffffffffffffffffffffffffffffffffffffffffffffffffffffffffff8484615017565b905092915050565b60008190508160005260206000209050919050565b601f82111561518b5761515c81615135565b61516584614418565b81016020851015615174578190505b61518861518085614418565b8301826144f5565b50505b505050565b61519982613c8b565b67ffffffffffffffff8111156151b2576151b161380f565b5b6151bc8254613f10565b6151c782828561514a565b600060209050601f8311600181146151fa57600084156151e8578287015190505b6151f28582614589565b86555061525a565b601f19841661520886615135565b60005b828110156152305784890151825560018201915060208501945060208101905061520b565b8683101561524d5784890151615249601f89168261456b565b8355505b6001600288020188555050505b50505050505056fea264697066735822122059208a9a013a0dae96aae7fa3e827d7f112c5f6065d73ea3e4d2148daf2e411d64736f6c63430008110033",
  "linkReferences": {},
  "deployedLinkReferences": {}
}